{
    "contractName": "BuidlGuidlCadets",
    "abi": [
        {
            "inputs": [
                {
                    "internalType": "address",
                    "name": "_priceFeed",
                    "type": "address"
                }
            ],
            "stateMutability": "nonpayable",
            "type": "constructor"
        },
        {
            "anonymous": false,
            "inputs": [
                {
                    "indexed": true,
                    "internalType": "address",
                    "name": "owner",
                    "type": "address"
                },
                {
                    "indexed": true,
                    "internalType": "address",
                    "name": "approved",
                    "type": "address"
                },
                {
                    "indexed": true,
                    "internalType": "uint256",
                    "name": "tokenId",
                    "type": "uint256"
                }
            ],
            "name": "Approval",
            "type": "event"
        },
        {
            "anonymous": false,
            "inputs": [
                {
                    "indexed": true,
                    "internalType": "address",
                    "name": "owner",
                    "type": "address"
                },
                {
                    "indexed": true,
                    "internalType": "address",
                    "name": "operator",
                    "type": "address"
                },
                {
                    "indexed": false,
                    "internalType": "bool",
                    "name": "approved",
                    "type": "bool"
                }
            ],
            "name": "ApprovalForAll",
            "type": "event"
        },
        {
            "anonymous": false,
            "inputs": [
                {
                    "indexed": true,
                    "internalType": "address",
                    "name": "from",
                    "type": "address"
                },
                {
                    "indexed": true,
                    "internalType": "address",
                    "name": "to",
                    "type": "address"
                },
                {
                    "indexed": true,
                    "internalType": "uint256",
                    "name": "tokenId",
                    "type": "uint256"
                }
            ],
            "name": "Transfer",
            "type": "event"
        },
        {
            "stateMutability": "payable",
            "type": "fallback"
        },
        {
            "inputs": [
                {
                    "internalType": "address",
                    "name": "to",
                    "type": "address"
                },
                {
                    "internalType": "uint256",
                    "name": "tokenId",
                    "type": "uint256"
                }
            ],
            "name": "approve",
            "outputs": [],
            "stateMutability": "nonpayable",
            "type": "function"
        },
        {
            "inputs": [
                {
                    "internalType": "address",
                    "name": "owner",
                    "type": "address"
                }
            ],
            "name": "balanceOf",
            "outputs": [
                {
                    "internalType": "uint256",
                    "name": "",
                    "type": "uint256"
                }
            ],
            "stateMutability": "view",
            "type": "function"
        },
        {
            "inputs": [
                {
                    "internalType": "uint256",
                    "name": "tokenId",
                    "type": "uint256"
                }
            ],
            "name": "getApproved",
            "outputs": [
                {
                    "internalType": "address",
                    "name": "",
                    "type": "address"
                }
            ],
            "stateMutability": "view",
            "type": "function"
        },
        {
            "inputs": [],
            "name": "getMintFee",
            "outputs": [
                {
                    "internalType": "uint256",
                    "name": "",
                    "type": "uint256"
                }
            ],
            "stateMutability": "pure",
            "type": "function"
        },
        {
            "inputs": [
                {
                    "internalType": "uint16",
                    "name": "id",
                    "type": "uint16"
                }
            ],
            "name": "getPropertiesById",
            "outputs": [
                {
                    "components": [
                        {
                            "internalType": "string",
                            "name": "wallColor",
                            "type": "string"
                        },
                        {
                            "internalType": "string",
                            "name": "windowColor",
                            "type": "string"
                        },
                        {
                            "internalType": "string",
                            "name": "doorColor",
                            "type": "string"
                        },
                        {
                            "internalType": "string",
                            "name": "roofColor",
                            "type": "string"
                        }
                    ],
                    "internalType": "struct BuidlGuidlCadets.HouseProperties",
                    "name": "properties",
                    "type": "tuple"
                }
            ],
            "stateMutability": "view",
            "type": "function"
        },
        {
            "inputs": [],
            "name": "i_priceFeed",
            "outputs": [
                {
                    "internalType": "contract AggregatorV3Interface",
                    "name": "",
                    "type": "address"
                }
            ],
            "stateMutability": "view",
            "type": "function"
        },
        {
            "inputs": [
                {
                    "internalType": "address",
                    "name": "owner",
                    "type": "address"
                },
                {
                    "internalType": "address",
                    "name": "operator",
                    "type": "address"
                }
            ],
            "name": "isApprovedForAll",
            "outputs": [
                {
                    "internalType": "bool",
                    "name": "",
                    "type": "bool"
                }
            ],
            "stateMutability": "view",
            "type": "function"
        },
        {
            "inputs": [
                {
                    "internalType": "uint16",
                    "name": "",
                    "type": "uint16"
                }
            ],
            "name": "isDay",
            "outputs": [
                {
                    "internalType": "bool",
                    "name": "",
                    "type": "bool"
                }
            ],
            "stateMutability": "view",
            "type": "function"
        },
        {
            "inputs": [],
            "name": "lastPrice",
            "outputs": [
                {
                    "internalType": "uint256",
                    "name": "",
                    "type": "uint256"
                }
            ],
            "stateMutability": "view",
            "type": "function"
        },
        {
            "inputs": [],
            "name": "mintFee",
            "outputs": [
                {
                    "internalType": "uint256",
                    "name": "",
                    "type": "uint256"
                }
            ],
            "stateMutability": "view",
            "type": "function"
        },
        {
            "inputs": [],
            "name": "mintItem",
            "outputs": [
                {
                    "internalType": "uint256",
                    "name": "",
                    "type": "uint256"
                }
            ],
            "stateMutability": "payable",
            "type": "function"
        },
        {
            "inputs": [],
            "name": "name",
            "outputs": [
                {
                    "internalType": "string",
                    "name": "",
                    "type": "string"
                }
            ],
            "stateMutability": "view",
            "type": "function"
        },
        {
            "inputs": [
                {
                    "internalType": "uint256",
                    "name": "tokenId",
                    "type": "uint256"
                }
            ],
            "name": "ownerOf",
            "outputs": [
                {
                    "internalType": "address",
                    "name": "",
                    "type": "address"
                }
            ],
            "stateMutability": "view",
            "type": "function"
        },
        {
            "inputs": [
                {
                    "internalType": "uint16",
                    "name": "id",
                    "type": "uint16"
                }
            ],
            "name": "renderedTokenById",
            "outputs": [
                {
                    "internalType": "string",
                    "name": "",
                    "type": "string"
                }
            ],
            "stateMutability": "view",
            "type": "function"
        },
        {
            "inputs": [
                {
                    "internalType": "address",
                    "name": "from",
                    "type": "address"
                },
                {
                    "internalType": "address",
                    "name": "to",
                    "type": "address"
                },
                {
                    "internalType": "uint256",
                    "name": "tokenId",
                    "type": "uint256"
                }
            ],
            "name": "safeTransferFrom",
            "outputs": [],
            "stateMutability": "nonpayable",
            "type": "function"
        },
        {
            "inputs": [
                {
                    "internalType": "address",
                    "name": "from",
                    "type": "address"
                },
                {
                    "internalType": "address",
                    "name": "to",
                    "type": "address"
                },
                {
                    "internalType": "uint256",
                    "name": "tokenId",
                    "type": "uint256"
                },
                {
                    "internalType": "bytes",
                    "name": "_data",
                    "type": "bytes"
                }
            ],
            "name": "safeTransferFrom",
            "outputs": [],
            "stateMutability": "nonpayable",
            "type": "function"
        },
        {
            "inputs": [
                {
                    "internalType": "address",
                    "name": "operator",
                    "type": "address"
                },
                {
                    "internalType": "bool",
                    "name": "approved",
                    "type": "bool"
                }
            ],
            "name": "setApprovalForAll",
            "outputs": [],
            "stateMutability": "nonpayable",
            "type": "function"
        },
        {
            "inputs": [
                {
                    "internalType": "bytes4",
                    "name": "interfaceId",
                    "type": "bytes4"
                }
            ],
            "name": "supportsInterface",
            "outputs": [
                {
                    "internalType": "bool",
                    "name": "",
                    "type": "bool"
                }
            ],
            "stateMutability": "view",
            "type": "function"
        },
        {
            "inputs": [],
            "name": "symbol",
            "outputs": [
                {
                    "internalType": "string",
                    "name": "",
                    "type": "string"
                }
            ],
            "stateMutability": "view",
            "type": "function"
        },
        {
            "inputs": [
                {
                    "internalType": "uint256",
                    "name": "index",
                    "type": "uint256"
                }
            ],
            "name": "tokenByIndex",
            "outputs": [
                {
                    "internalType": "uint256",
                    "name": "",
                    "type": "uint256"
                }
            ],
            "stateMutability": "view",
            "type": "function"
        },
        {
            "inputs": [
                {
                    "internalType": "uint16",
                    "name": "",
                    "type": "uint16"
                },
                {
                    "internalType": "uint256",
                    "name": "",
                    "type": "uint256"
                }
            ],
            "name": "tokenIdToColor",
            "outputs": [
                {
                    "internalType": "string",
                    "name": "",
                    "type": "string"
                }
            ],
            "stateMutability": "view",
            "type": "function"
        },
        {
            "inputs": [
                {
                    "internalType": "uint16",
                    "name": "",
                    "type": "uint16"
                }
            ],
            "name": "tokenIdToRandomNumber",
            "outputs": [
                {
                    "internalType": "uint256",
                    "name": "",
                    "type": "uint256"
                }
            ],
            "stateMutability": "view",
            "type": "function"
        },
        {
            "inputs": [
                {
                    "internalType": "address",
                    "name": "owner",
                    "type": "address"
                },
                {
                    "internalType": "uint256",
                    "name": "index",
                    "type": "uint256"
                }
            ],
            "name": "tokenOfOwnerByIndex",
            "outputs": [
                {
                    "internalType": "uint256",
                    "name": "",
                    "type": "uint256"
                }
            ],
            "stateMutability": "view",
            "type": "function"
        },
        {
            "inputs": [
                {
                    "internalType": "uint16",
                    "name": "id",
                    "type": "uint16"
                }
            ],
            "name": "tokenSVG",
            "outputs": [
                {
                    "internalType": "string",
                    "name": "",
                    "type": "string"
                }
            ],
            "stateMutability": "view",
            "type": "function"
        },
        {
            "inputs": [
                {
                    "internalType": "uint256",
                    "name": "id",
                    "type": "uint256"
                }
            ],
            "name": "tokenURI",
            "outputs": [
                {
                    "internalType": "string",
                    "name": "",
                    "type": "string"
                }
            ],
            "stateMutability": "view",
            "type": "function"
        },
        {
            "inputs": [],
            "name": "totalSupply",
            "outputs": [
                {
                    "internalType": "uint256",
                    "name": "",
                    "type": "uint256"
                }
            ],
            "stateMutability": "view",
            "type": "function"
        },
        {
            "inputs": [
                {
                    "internalType": "address",
                    "name": "from",
                    "type": "address"
                },
                {
                    "internalType": "address",
                    "name": "to",
                    "type": "address"
                },
                {
                    "internalType": "uint256",
                    "name": "tokenId",
                    "type": "uint256"
                }
            ],
            "name": "transferFrom",
            "outputs": [],
            "stateMutability": "nonpayable",
            "type": "function"
        },
        {
            "inputs": [],
            "name": "withdraw",
            "outputs": [],
            "stateMutability": "payable",
            "type": "function"
        },
        {
            "stateMutability": "payable",
            "type": "receive"
        }
    ],
    "bytecode": "60c06040526000600b553480156200001657600080fd5b5060405162004f9838038062004f988339810160408190526200003991620000b9565b60405180604001604052806012815260200171427569646c20477569646c2043616465747360701b8152506040518060400160405280600381526020016242474360e81b815250816000908162000091919062000190565b506001620000a0828262000190565b5050506001600160a01b03166080523360a0526200025c565b600060208284031215620000cc57600080fd5b81516001600160a01b0381168114620000e457600080fd5b9392505050565b634e487b7160e01b600052604160045260246000fd5b600181811c908216806200011657607f821691505b6020821081036200013757634e487b7160e01b600052602260045260246000fd5b50919050565b601f8211156200018b57600081815260208120601f850160051c81016020861015620001665750805b601f850160051c820191505b81811015620001875782815560010162000172565b5050505b505050565b81516001600160401b03811115620001ac57620001ac620000eb565b620001c481620001bd845462000101565b846200013d565b602080601f831160018114620001fc5760008415620001e35750858301515b600019600386901b1c1916600185901b17855562000187565b600085815260208120601f198616915b828110156200022d578886015182559484019460019091019084016200020c565b50858210156200024c5787850151600019600388901b60f8161c191681555b5050505050600190811b01905550565b60805160a051614d0f620002896000396000610f220152600081816104b3015261066b0152614d0f6000f3fe6080604052600436106101bb5760003560e01c8063605b8d8d116100ec578063957b89561161008a578063b88d4fde11610064578063b88d4fde1461050a578063c87b56dd1461052a578063e985e9c51461054a578063eb93406b14610593576101ca565b8063957b8956146104a157806395d89b41146104d5578063a22cb465146104ea576101ca565b8063717f20b6116100c6578063717f20b61461040a5780637232f1cf1461042a5780637a5caab314610457578063831af54714610471576101ca565b8063605b8d8d1461039d5780636352211e146103ca57806370a08231146103ea576101ca565b8063222f721f116101595780633337a1cc116101335780633337a1cc146103355780633ccfd60b1461035557806342842e0e1461035d5780634f6ccce71461037d576101ca565b8063222f721f146102d557806323b872dd146102f55780632f745c5914610315576101ca565b8063081812fc11610195578063081812fc1461024d578063095ea7b31461028557806313966db5146102a557806318160ddd146102c0576101ca565b806301ffc9a7146101d2578063053f14da1461020757806306fdde031461022b576101ca565b366101ca576101c8610597565b005b6101c8610597565b3480156101de57600080fd5b506101f26101ed3660046125de565b610a5d565b60405190151581526020015b60405180910390f35b34801561021357600080fd5b5061021d600b5481565b6040519081526020016101fe565b34801561023757600080fd5b50610240610a88565b6040516101fe919061264b565b34801561025957600080fd5b5061026d61026836600461265e565b610b1a565b6040516001600160a01b0390911681526020016101fe565b34801561029157600080fd5b506101c86102a0366004612693565b610baf565b3480156102b157600080fd5b5061021d66038d7ea4c6800081565b3480156102cc57600080fd5b5060085461021d565b3480156102e157600080fd5b506102406102f03660046126cf565b610cc4565b34801561030157600080fd5b506101c86103103660046126ea565b610da3565b34801561032157600080fd5b5061021d610330366004612693565b610dd4565b34801561034157600080fd5b50610240610350366004612726565b610e6a565b6101c8610f17565b34801561036957600080fd5b506101c86103783660046126ea565b61100e565b34801561038957600080fd5b5061021d61039836600461265e565b611029565b3480156103a957600080fd5b5061021d6103b83660046126cf565b600d6020526000908152604090205481565b3480156103d657600080fd5b5061026d6103e536600461265e565b6110bc565b3480156103f657600080fd5b5061021d610405366004612742565b611133565b34801561041657600080fd5b506102406104253660046126cf565b6111ba565b34801561043657600080fd5b5061044a6104453660046126cf565b6111ee565b6040516101fe919061275d565b34801561046357600080fd5b5066038d7ea4c6800061021d565b34801561047d57600080fd5b506101f261048c3660046126cf565b600e6020526000908152604090205460ff1681565b3480156104ad57600080fd5b5061026d7f000000000000000000000000000000000000000000000000000000000000000081565b3480156104e157600080fd5b50610240611628565b3480156104f657600080fd5b506101c86105053660046127db565b611637565b34801561051657600080fd5b506101c861052536600461282d565b611646565b34801561053657600080fd5b5061024061054536600461265e565b61167e565b34801561055657600080fd5b506101f2610565366004612909565b6001600160a01b03918216600090815260056020908152604080832093909416825291909152205460ff1690565b61021d5b600a546000906103e861ffff90911611156105e95760405162461bcd60e51b815260206004820152600d60248201526c135a5b9d1a5b99c8115b991959609a1b60448201526064015b60405180910390fd5b66038d7ea4c680003410156106355760405162461bcd60e51b81526020600482015260126024820152710a0e4d2c6ca40d2e640605c606062408aa8960731b60448201526064016105e0565b600a5461ffff16610647816001612952565b600a805461ffff191661ffff928316179055610666903390831661191c565b6000807f00000000000000000000000000000000000000000000000000000000000000006001600160a01b031663feaf968c6040518163ffffffff1660e01b815260040160a060405180830381865afa1580156106c7573d6000803e3d6000fd5b505050506040513d601f19601f820116820180604052508101906106eb919061298e565b94505050925050600b5482106107235761ffff83166000908152600e60205260409020805460ff19166001179055600b829055610729565b600b8290555b6000808052600e60208181527fe710864318d4a32f37d6ce54cb3fadbef648dd12d8dbdf53973564d56b7f881c805460ff191690556040805161010081018252600a60c082019081526939b0b7323cb13937bbb760b11b60e083015281528151808301835260068152651bdc98da1a5960d21b81850152818401528151808301835260098082526863686f636f6c61746560b81b828601528284019190915282518084018452908152686c696768746772617960b81b81850152606080830191909152825180840184529485526d6c69676874737465656c626c756560901b85850152608082019490945281518083018352600781526664696d6772657960c81b8185015260a082015290516bffffffffffffffffffffffff1933851b8116938201939093523090931b90911660348301524660488301526001600160f01b031960f087901b16606883015242606a83015244608a83015260aa8201859052919060ca016040516020818303038152906040528051906020012060001c905060005b60068110156109635760006108c18260066129de565b6108d769ffffffffffffffffffff8716856129f1565b6108e19190612a1a565b6108eb90836129f1565b9050600084826006811061090157610901612a2e565b6020020151905084836006811061091a5761091a612a2e565b602002015185836006811061093157610931612a2e565b60200201528085846006811061094957610949612a2e565b60200201525081905061095b81612a44565b9150506108ab565b5061ffff85166000908152600c6020526040902061098390836006612518565b5061ffff85166000908152600d60205260408082208390555173b91621b0106c542faf1cfeb4c316fec48096b1299034908381818185875af1925050503d80600081146109ec576040519150601f19603f3d011682016040523d82523d6000602084013e6109f1565b606091505b5050905080610a4d5760405162461bcd60e51b815260206004820152602260248201527f4661696c65642073656e64696e672066756e647320746f204275696c644775696044820152611b1960f21b60648201526084016105e0565b8561ffff16965050505050505090565b60006001600160e01b0319821663780e9d6360e01b1480610a825750610a8282611a6a565b92915050565b606060008054610a9790612a5d565b80601f0160208091040260200160405190810160405280929190818152602001828054610ac390612a5d565b8015610b105780601f10610ae557610100808354040283529160200191610b10565b820191906000526020600020905b815481529060010190602001808311610af357829003601f168201915b5050505050905090565b6000818152600260205260408120546001600160a01b0316610b935760405162461bcd60e51b815260206004820152602c60248201527f4552433732313a20617070726f76656420717565727920666f72206e6f6e657860448201526b34b9ba32b73a103a37b5b2b760a11b60648201526084016105e0565b506000908152600460205260409020546001600160a01b031690565b6000610bba826110bc565b9050806001600160a01b0316836001600160a01b031603610c275760405162461bcd60e51b815260206004820152602160248201527f4552433732313a20617070726f76616c20746f2063757272656e74206f776e656044820152603960f91b60648201526084016105e0565b336001600160a01b0382161480610c435750610c438133610565565b610cb55760405162461bcd60e51b815260206004820152603860248201527f4552433732313a20617070726f76652063616c6c6572206973206e6f74206f7760448201527f6e6572206e6f7220617070726f76656420666f7220616c6c000000000000000060648201526084016105e0565b610cbf8383611aba565b505050565b60606000610cd1836111ee565b61ffff84166000908152600e602052604090205490915060ff1660608115610d2b57825160408085015160208087015160608801519351610d159594919201612f43565b6040516020818303038152906040529050610d9b565b81610d9b578461ffff16600003610d5d57604051602001610d4b90613a91565b60405160208183030381529060405290505b61ffff851615610d9b57825160408085015160208087015160608801519351610d8995949192016141e0565b60405160208183030381529060405290505b949350505050565b610dad3382611b28565b610dc95760405162461bcd60e51b81526004016105e0906142e1565b610cbf838383611c1b565b6000610ddf83611133565b8210610e415760405162461bcd60e51b815260206004820152602b60248201527f455243373231456e756d657261626c653a206f776e657220696e646578206f7560448201526a74206f6620626f756e647360a81b60648201526084016105e0565b506001600160a01b03919091166000908152600660209081526040808320938352929052205490565b600c6020528160005260406000208160068110610e8657600080fd5b018054909250610e969150612a5d565b80601f0160208091040260200160405190810160405280929190818152602001828054610ec290612a5d565b8015610f0f5780601f10610ee457610100808354040283529160200191610f0f565b820191906000526020600020905b815481529060010190602001808311610ef257829003601f168201915b505050505081565b336001600160a01b037f00000000000000000000000000000000000000000000000000000000000000001614610f855760405162461bcd60e51b815260206004820152601360248201527229b2b73232b91034b9903737ba1037bbb732b960691b60448201526064016105e0565b604051600090339047908381818185875af1925050503d8060008114610fc7576040519150601f19603f3d011682016040523d82523d6000602084013e610fcc565b606091505b505090508061100b5760405162461bcd60e51b815260206004820152600b60248201526a10d85b1b0819985a5b195960aa1b60448201526064016105e0565b50565b610cbf83838360405180602001604052806000815250611646565b600061103460085490565b82106110975760405162461bcd60e51b815260206004820152602c60248201527f455243373231456e756d657261626c653a20676c6f62616c20696e646578206f60448201526b7574206f6620626f756e647360a01b60648201526084016105e0565b600882815481106110aa576110aa612a2e565b90600052602060002001549050919050565b6000818152600260205260408120546001600160a01b031680610a825760405162461bcd60e51b815260206004820152602960248201527f4552433732313a206f776e657220717565727920666f72206e6f6e657869737460448201526832b73a103a37b5b2b760b91b60648201526084016105e0565b60006001600160a01b03821661119e5760405162461bcd60e51b815260206004820152602a60248201527f4552433732313a2062616c616e636520717565727920666f7220746865207a65604482015269726f206164647265737360b01b60648201526084016105e0565b506001600160a01b031660009081526003602052604090205490565b606060006111c783610cc4565b6040516020016111d79190614332565b60408051601f198184030181529190529392505050565b6112196040518060800160405280606081526020016060815260200160608152602001606081525090565b61ffff82166000908152600d602052604081205490611239600683612a1a565b61ffff85166000908152600c6020526040902090915060ff82166006811061126357611263612a2e565b01805461126f90612a5d565b80601f016020809104026020016040519081016040528092919081815260200182805461129b90612a5d565b80156112e85780601f106112bd576101008083540402835291602001916112e8565b820191906000526020600020905b8154815290600101906020018083116112cb57829003601f168201915b505050918552506000905060066113008460016129f1565b61130a9190612a1a565b61ffff86166000908152600c6020526040902090915060ff82166006811061133457611334612a2e565b01805461134090612a5d565b80601f016020809104026020016040519081016040528092919081815260200182805461136c90612a5d565b80156113b95780601f1061138e576101008083540402835291602001916113b9565b820191906000526020600020905b81548152906001019060200180831161139c57829003601f168201915b5050505050606085015261ffff85166000908152600c6020526040902060040180546113e490612a5d565b80601f016020809104026020016040519081016040528092919081815260200182805461141090612a5d565b801561145d5780601f106114325761010080835404028352916020019161145d565b820191906000526020600020905b81548152906001019060200180831161144057829003601f168201915b50505050506020850152600060066114768560046129f1565b6114809190612a1a565b90508060ff1660041461154b5761ffff86166000908152600c6020526040902060ff8216600681106114b4576114b4612a2e565b0180546114c090612a5d565b80601f01602080910402602001604051908101604052809291908181526020018280546114ec90612a5d565b80156115395780601f1061150e57610100808354040283529160200191611539565b820191906000526020600020905b81548152906001019060200180831161151c57829003601f168201915b5050505050856040018190525061161f565b60076115588560056129f1565b6115629190612a1a565b61ffff87166000908152600c6020526040902090915060ff82166006811061158c5761158c612a2e565b01805461159890612a5d565b80601f01602080910402602001604051908101604052809291908181526020018280546115c490612a5d565b80156116115780601f106115e657610100808354040283529160200191611611565b820191906000526020600020905b8154815290600101906020018083116115f457829003601f168201915b505050505085604001819052505b50505050919050565b606060018054610a9790612a5d565b611642338383611dc6565b5050565b6116503383611b28565b61166c5760405162461bcd60e51b81526004016105e0906142e1565b61167884848484611e94565b50505050565b6000818152600260205260409020546060906001600160a01b03166116dc5760405162461bcd60e51b8152602060048201526014602482015273151bdad95b88191bd95cc81b9bdd08195e1a5cdd60621b60448201526064016105e0565b60006116e7836111ee565b61ffff84166000908152600e602052604090205490915060ff16156117f35760405166213ab4b63232b960c91b60208201526117cc9060270160408051601f198184030181529082905271024ba399029bab7373c9027baba39b4b232960751b602083015290603201604051602081830303815290604052836060015184602001518560000151866040015161179060146117818c6110bc565b6001600160a01b031690611ec7565b6117a161179c8c6111ba565b61206a565b6040516020016117b898979695949392919061455b565b60405160208183030381529060405261206a565b6040516020016117dc9190614723565b604051602081830303815290604052915050919050565b8260000361188b57604051704275696c646572202d2047656e6573697360781b60208201526117cc9060310160408051601f198184030181529082905271024ba399029bab7373c9027baba39b4b232960751b60208301529060320160405160208183030381529060405261186c6014611781886110bc565b61187861179c886111ba565b6040516020016117b89493929190614768565b60405166213ab4b63232b960c91b60208201526117cc9060270160408051601f19818403018152908290526d497473204e696768742054696d6560901b602083015290602e01604051602081830303815290604052836060015184602001518560000151866040015161190061179c8b6111ba565b6040516020016117b89796959493929190614936565b50919050565b6001600160a01b0382166119725760405162461bcd60e51b815260206004820181905260248201527f4552433732313a206d696e7420746f20746865207a65726f206164647265737360448201526064016105e0565b6000818152600260205260409020546001600160a01b0316156119d75760405162461bcd60e51b815260206004820152601c60248201527f4552433732313a20746f6b656e20616c7265616479206d696e7465640000000060448201526064016105e0565b6119e3600083836121cf565b6001600160a01b0382166000908152600360205260408120805460019290611a0c9084906129f1565b909155505060008181526002602052604080822080546001600160a01b0319166001600160a01b03861690811790915590518392907fddf252ad1be2c89b69c2b068fc378daa952ba7f163c4a11628f55a4df523b3ef908290a45050565b60006001600160e01b031982166380ac58cd60e01b1480611a9b57506001600160e01b03198216635b5e139f60e01b145b80610a8257506301ffc9a760e01b6001600160e01b0319831614610a82565b600081815260046020526040902080546001600160a01b0319166001600160a01b0384169081179091558190611aef826110bc565b6001600160a01b03167f8c5be1e5ebec7d5bd14f71427d1e84f3dd0314c0f7b2291e5b200ac8c7c3b92560405160405180910390a45050565b6000818152600260205260408120546001600160a01b0316611ba15760405162461bcd60e51b815260206004820152602c60248201527f4552433732313a206f70657261746f7220717565727920666f72206e6f6e657860448201526b34b9ba32b73a103a37b5b2b760a11b60648201526084016105e0565b6000611bac836110bc565b9050806001600160a01b0316846001600160a01b03161480611be75750836001600160a01b0316611bdc84610b1a565b6001600160a01b0316145b80610d9b57506001600160a01b0380821660009081526005602090815260408083209388168352929052205460ff16610d9b565b826001600160a01b0316611c2e826110bc565b6001600160a01b031614611c965760405162461bcd60e51b815260206004820152602960248201527f4552433732313a207472616e73666572206f6620746f6b656e2074686174206960448201526839903737ba1037bbb760b91b60648201526084016105e0565b6001600160a01b038216611cf85760405162461bcd60e51b8152602060048201526024808201527f4552433732313a207472616e7366657220746f20746865207a65726f206164646044820152637265737360e01b60648201526084016105e0565b611d038383836121cf565b611d0e600082611aba565b6001600160a01b0383166000908152600360205260408120805460019290611d379084906129de565b90915550506001600160a01b0382166000908152600360205260408120805460019290611d659084906129f1565b909155505060008181526002602052604080822080546001600160a01b0319166001600160a01b0386811691821790925591518493918716917fddf252ad1be2c89b69c2b068fc378daa952ba7f163c4a11628f55a4df523b3ef91a4505050565b816001600160a01b0316836001600160a01b031603611e275760405162461bcd60e51b815260206004820152601960248201527f4552433732313a20617070726f766520746f2063616c6c65720000000000000060448201526064016105e0565b6001600160a01b03838116600081815260056020908152604080832094871680845294825291829020805460ff191686151590811790915591519182527f17307eab39ab6107e8899845ad3d59bd9653f200f220920489ca2b5937696c31910160405180910390a3505050565b611e9f848484611c1b565b611eab84848484612287565b6116785760405162461bcd60e51b81526004016105e090614a7f565b60606000611ed6836002614ad1565b611ee19060026129f1565b67ffffffffffffffff811115611ef957611ef9612817565b6040519080825280601f01601f191660200182016040528015611f23576020820181803683370190505b509050600360fc1b81600081518110611f3e57611f3e612a2e565b60200101906001600160f81b031916908160001a905350600f60fb1b81600181518110611f6d57611f6d612a2e565b60200101906001600160f81b031916908160001a9053506000611f91846002614ad1565b611f9c9060016129f1565b90505b6001811115612014576f181899199a1a9b1b9c1cb0b131b232b360811b85600f1660108110611fd057611fd0612a2e565b1a60f81b828281518110611fe657611fe6612a2e565b60200101906001600160f81b031916908160001a90535060049490941c9361200d81614af0565b9050611f9f565b5083156120635760405162461bcd60e51b815260206004820181905260248201527f537472696e67733a20686578206c656e67746820696e73756666696369656e7460448201526064016105e0565b9392505050565b6060815160000361208957505060408051602081019091526000815290565b6000604051806060016040528060408152602001614c9a60409139905060006003845160026120b891906129f1565b6120c29190614b07565b6120cd906004614ad1565b905060006120dc8260206129f1565b67ffffffffffffffff8111156120f4576120f4612817565b6040519080825280601f01601f19166020018201604052801561211e576020820181803683370190505b509050818152600183018586518101602084015b8183101561218a576003830192508251603f8160121c168501518253600182019150603f81600c1c168501518253600182019150603f8160061c168501518253600182019150603f8116850151825350600101612132565b6003895106600181146121a457600281146121b5576121c1565b613d3d60f01b6001198301526121c1565b603d60f81b6000198301525b509398975050505050505050565b6001600160a01b03831661222a5761222581600880546000838152600960205260408120829055600182018355919091527ff3f7a9fe364faab93b216da50a3214154f22a0a2b415b23a84c8169e8b636ee30155565b61224d565b816001600160a01b0316836001600160a01b03161461224d5761224d8382612388565b6001600160a01b03821661226457610cbf81612425565b826001600160a01b0316826001600160a01b031614610cbf57610cbf82826124d4565b60006001600160a01b0384163b1561237d57604051630a85bd0160e11b81526001600160a01b0385169063150b7a02906122cb903390899088908890600401614b1b565b6020604051808303816000875af1925050508015612306575060408051601f3d908101601f1916820190925261230391810190614b58565b60015b612363573d808015612334576040519150601f19603f3d011682016040523d82523d6000602084013e612339565b606091505b50805160000361235b5760405162461bcd60e51b81526004016105e090614a7f565b805181602001fd5b6001600160e01b031916630a85bd0160e11b149050610d9b565b506001949350505050565b6000600161239584611133565b61239f91906129de565b6000838152600760205260409020549091508082146123f2576001600160a01b03841660009081526006602090815260408083208584528252808320548484528184208190558352600790915290208190555b5060009182526007602090815260408084208490556001600160a01b039094168352600681528383209183525290812055565b600854600090612437906001906129de565b6000838152600960205260408120546008805493945090928490811061245f5761245f612a2e565b90600052602060002001549050806008838154811061248057612480612a2e565b60009182526020808320909101929092558281526009909152604080822084905585825281205560088054806124b8576124b8614b75565b6001900381819060005260206000200160009055905550505050565b60006124df83611133565b6001600160a01b039093166000908152600660209081526040808320868452825280832085905593825260079052919091209190915550565b8260068101928215612551579160200282015b8281111561255157825182906125419082614bd9565b509160200191906001019061252b565b5061255d929150612561565b5090565b8082111561255d576000612575828261257e565b50600101612561565b50805461258a90612a5d565b6000825580601f1061259a575050565b601f01602090049060005260206000209081019061100b91905b8082111561255d57600081556001016125b4565b6001600160e01b03198116811461100b57600080fd5b6000602082840312156125f057600080fd5b8135612063816125c8565b60005b838110156126165781810151838201526020016125fe565b50506000910152565b600081518084526126378160208601602086016125fb565b601f01601f19169290920160200192915050565b602081526000612063602083018461261f565b60006020828403121561267057600080fd5b5035919050565b80356001600160a01b038116811461268e57600080fd5b919050565b600080604083850312156126a657600080fd5b6126af83612677565b946020939093013593505050565b803561ffff8116811461268e57600080fd5b6000602082840312156126e157600080fd5b612063826126bd565b6000806000606084860312156126ff57600080fd5b61270884612677565b925061271660208501612677565b9150604084013590509250925092565b6000806040838503121561273957600080fd5b6126af836126bd565b60006020828403121561275457600080fd5b61206382612677565b60208152600082516080602084015261277960a084018261261f565b90506020840151601f1980858403016040860152612797838361261f565b925060408601519150808584030160608601526127b4838361261f565b92506060860151915080858403016080860152506127d2828261261f565b95945050505050565b600080604083850312156127ee57600080fd5b6127f783612677565b91506020830135801515811461280c57600080fd5b809150509250929050565b634e487b7160e01b600052604160045260246000fd5b6000806000806080858703121561284357600080fd5b61284c85612677565b935061285a60208601612677565b925060408501359150606085013567ffffffffffffffff8082111561287e57600080fd5b818701915087601f83011261289257600080fd5b8135818111156128a4576128a4612817565b604051601f8201601f19908116603f011681019083821181831017156128cc576128cc612817565b816040528281528a60208487010111156128e557600080fd5b82602086016020830137600060208483010152809550505050505092959194509250565b6000806040838503121561291c57600080fd5b61292583612677565b915061293360208401612677565b90509250929050565b634e487b7160e01b600052601160045260246000fd5b61ffff81811683821601908082111561296d5761296d61293c565b5092915050565b805169ffffffffffffffffffff8116811461268e57600080fd5b600080600080600060a086880312156129a657600080fd5b6129af86612974565b94506020860151935060408601519250606086015191506129d260808701612974565b90509295509295909350565b81810381811115610a8257610a8261293c565b80820180821115610a8257610a8261293c565b634e487b7160e01b600052601260045260246000fd5b600082612a2957612a29612a04565b500690565b634e487b7160e01b600052603260045260246000fd5b600060018201612a5657612a5661293c565b5060010190565b600181811c90821680612a7157607f821691505b60208210810361191657634e487b7160e01b600052602260045260246000fd5b7f203c6c696e6561724772616469656e742069643d22696430222067726164696581527f6e74556e6974733d227573657253706163654f6e557365222078313d2231323760208201527f2e35222079313d223130362e3135222078323d223132372e35222079323d22316040820152671c19971c1a98911f60c11b606082015260680190565b7f203c73746f70206f66667365743d223122207374796c653d2273746f702d6f7081527f61636974793a313b2073746f702d636f6c6f723a23464546454645222f3e00006020820152603e0190565b60008151612b788185602086016125fb565b9290920192915050565b7f2720643d224d3136203233336c313320302030202d363120353220302030203681527f31203720302030202d373420373920302030203734203720302030202d36312060208201527f35322030203020363120313320302030203432202d393220302030202d31356360408201527f302c2d34202d392c2d3132202d31392c2d31326c302030632d31312c30202d3260608201527f302c37202d32302c31326c30203135202d393220302030202d34327a6d31373660808201527f202d376c30202d313563302c2d3420342c2d3720382c2d376c30203063342c3060a08201527f20382c3320382c376c30203135202d313620307a6d2d3534202d32306c30202d60c08201527f313463302c2d3320332c2d3620372c2d366c30203063342c3020382c3320382c60e08201527f366c30203134202d313520307a6d2d333620306c30202d313463302c2d3320346101008201527f2c2d3620382c2d366c30203063342c3020372c3320372c366c30203134202d316101208201527f3520307a6d2d35352032306c30202d313563302c2d3420342c2d3720382c2d376101408201527f6c30203063342c3020382c3320382c376c30203135202d313620307a222f3e0061016082015261017f0190565b7f2720643d224d313130203237356c30202d313463302c2d3420382c2d3131203181527f382c2d31316c30203063392c302031382c372031382c31316c30203134202d336020820152661b10183d11179f60c91b604082015260470190565b7f2720643d224d313933203232356c30202d313463302c2d3320332c2d3620372c81527f2d366c30203063342c3020372c3320372c366c30203134202d313420307a6d2d60208201527f31343520306c30202d313463302c2d3320332c2d3620372c2d366c302030633460408201527f2c3020372c3320372c366c30203134202d313420307a6d3535202d32316c302060608201527f2d313163302c2d3220332c2d3520362c2d356c30203063342c3020372c33203760808201527f2c356c30203131202d313320307a6d333620306c30202d313163302c2d32203360a08201527f2c2d3520372c2d356c30203063332c3020362c3320362c356c30203131202d3160c0820152661990183d11179f60c91b60e082015260e70190565b7f2720643d224d323331203137306c2d36322030203331202d343320333120343381527f7a6d2d31343520306c2d36322030203331202d34332033312034337a6d38372060208201527f2d31326c2d39312030203436202d35312034352035317a222f3e0000000000006040820152605a0190565b6000612f4e82612a91565b7f203c73746f70206f66667365743d223022207374796c653d2273746f702d6f7081527f61636974793a313b2073746f702d636f6c6f723a23303042354443222f3e00006020820152612fa3603e8201612b17565b90507210101e17b634b732b0b923b930b234b2b73a1f60691b81527f203c706f6c79676f6e2066696c6c3d2275726c2823696430292220706f696e7460138201527f733d223235332c3135203235332c32373520322c32373520322c3135222f3e0060338201526d20203c706174682066696c6c3d2760901b60528201528651613034816060840160208b016125fb565b613042606082840101612b82565b91505061305e816c203c706174682066696c6c3d2760981b9052565b61307361306e600d830188612b66565b612d52565b6c203c706174682066696c6c3d2760981b8152905061309d613098600d830187612b66565b612db1565b6b3c706174682066696c6c3d2760a01b81529050613a376130c96130c4600c840187612b66565b612ece565b7f203c706174682066696c6c3d22234443444330302220643d224d32303620343081527f632d342c30202d382c32202d31312c35202d332c33202d342c38202d342c313260208201527f20312c3820382c31352031382c313420382c302031352c2d382031342c2d313760408201527f202d312c2d38202d382c2d3135202d31372c2d31347a6d3130202d3363312c3060608201527f20302c3020312c3020312c2d3120312c2d3620312c2d3720302c3020302c302060808201527f302c306c2d31203163302c3020302c30202d312c316c2d32203363302c30203060a08201527f2c3020302c3120302c3020302c3020302c3020302c30202d312c30202d312c3160c08201527f20302c3220332c3320332c307a6d3520333463302c3020302c3020302c30203060e08201527f2c3020302c3020302c3020302c3120342c3420352c346c3020302031203063306101008201527f2c2d31202d322c2d33202d322c2d336c2d32202d3363302c3020302c3020302c6101208201527f30202d312c2d32202d352c30202d322c327a6d2d3239202d32632d312c30202d6101408201527f312c31202d322c3120302c31202d322c34202d322c356c3020302030203063316101608201527f2c3020352c2d3320362c2d3420302c3020302c30202d312c3020302c3020302c6101808201527f3020302c3020312c3020322c2d3120312c2d32202d312c2d31202d322c2d31206101a08201527f2d322c307a6d2d34202d333263302c3120322c3320332c3420302c3120302c316101c08201527f20302c3120312c3020302c3020312c3020302c3020312c3120322c3120312c2d6101e08201527f3120312c2d32202d312c2d3320312c3020312c3020302c2d31202d312c2d31206102008201527f2d342c2d33202d352c2d3320302c3020302c3020302c3020302c3120302c30206102208201527f302c30202d312c3120302c3020302c317a6d3338203963302c3120302c3120306102408201527f2c31202d332c30202d322c3220302c3220302c3020312c3020312c3020322c306102608201527f20352c2d3320352c2d336c30202d31632d312c30202d362c30202d362c317a6d6102808201527f2d35202d36632d312c31202d322c32202d312c3320312c3020322c3020322c306102a08201527f20302c2d3120302c2d3120312c2d3120302c2d31202d312c3020302c3020302c6102c08201527f3020302c3020312c2d3120312c2d3120332c2d3320332c2d35202d312c30202d6102e08201527f312c30202d312c3120302c2d3120302c2d3120302c2d31202d312c30202d332c6103008201527f32202d342c33202d312c30202d312c30202d312c3020302c3120302c3120302c6103208201527f317a6d2d333520313763302c3020302c3020302c3020302c3020302c3020302c6103408201527f3020342c3120342c2d3320302c2d336c30203063302c3020302c3020302c30206103608201527f302c3020302c3020302c30202d312c30202d352c31202d362c3120302c3020306103808201527f2c3020302c306c30203163302c3020302c3020312c3020312c3120342c3120356103a08201527f2c317a6d3132202d32306c30203063302c3020302c3020302c3020302c3320336103c08201527f2c3220332c3020302c2d3120302c2d3120302c2d3120302c2d31202d342c2d366103e08201527f202d342c2d3620302c3020302c3020302c3020302c3020302c3020302c30202d6104008201527f312c30202d312c31202d312c3220302c3120312c3420322c357a6d33302031376104208201527f632d332c30202d342c3420302c3320302c3020302c3020302c3020302c3020306104408201527f2c3020302c3020312c3020352c3020362c2d3120302c3020312c3020312c2d316104608201527f20302c3020302c30202d312c30202d312c30202d352c2d31202d362c2d3120306104808201527f2c3020302c3020302c307a6d2d3436202d3963302c3020302c3020302c3120306104a08201527f2c3020302c3020302c3020312c3020342c3320352c3320302c3020312c3020326104c08201527f2c3020312c3020332c2d32202d312c2d3220302c3020302c3020312c2d31202d6104e08201527f312c2d31202d362c2d32202d372c2d317a6d3335203239632d312c30202d312c6105008201527f30202d312c3120302c2d3120302c2d33202d312c2d33202d312c30202d322c316105208201527f202d322c3220312c3220332c3520342c3620302c3120302c3120312c3120302c6105408201527f3020302c2d3120302c2d3220302c2d32202d312c2d33202d312c2d357a6d2d316105608201527f39203163302c2d3120302c2d3120302c2d31202d312c31202d322c34202d322c6105808201527f3520302c3120302c3220312c3220302c3020302c3020302c3020302c3020342c6105a08201527f2d3520342c2d356c30202d3263302c2d31202d312c2d32202d312c2d32202d326105c08201527f2c30202d322c32202d322c337a6d38203263302c3020302c3020302c2d31202d6105e08201527f312c3220302c3620312c3720302c3020302c3020302c3020302c3020302c30206106008201527f302c3020302c3020302c3020302c3020302c3020302c3020302c306c302030636106208201527f312c2d3120322c2d3520322c2d37202d312c3120302c31202d312c3120312c2d6106408201527f3220312c2d33202d312c2d33202d312c30202d312c31202d312c337a6d3230206106608201527f2d313263302c3020302c3020302c3020302c3120352c3220362c3120302c30206106808201527f312c3020302c3020302c3020312c3020312c30202d312c2d31202d352c2d33206106a08201527f2d362c2d34202d322c2d31202d342c31202d332c3220312c3120322c3020322c6106c08201527f317a6d2d3434203163302c3020302c3020302c306c30203063302c3020302c306106e08201527f20302c3020312c3120362c3020372c2d31202d312c30202d312c30202d312c2d6107008201527f3120312c3020312c3120322c3020312c2d3120302c2d32202d312c2d32202d326107208201527f2c30202d332c31202d352c3220302c30202d312c31202d322c327a6d3235202d6107408201527f3338632d312c31202d322c35202d312c3720302c3020302c3020302c2d3120306107608201527f2c3220302c3320312c3320322c3020322c2d3120312c2d3220312c2d3120302c6107808201527f3020312c3020302c2d32202d312c2d36202d322c2d376c3020307a222f3e00006107a08201526107be0190565b979650505050505050565b7f3c706f6c79676f6e2066696c6c3d2275726c2823696430292220706f696e747381527f3d223235332c3135203235332c32373520322c32373520322c3135222f3e00006020820152603e0190565b6000613af6613af1613aa284612a91565b7f203c73746f70206f66667365743d223022207374796c653d2273746f702d6f7081527f61636974793a313b2073746f702d636f6c6f723a23324232433541222f3e00006020820152603e0190565b612b17565b701e17b634b732b0b923b930b234b2b73a1f60791b8152613b1960118201613a42565b7f203c706174682066696c6c3d22626c61636b2220643d224d3136203233336c3181527f3320302030202d363120353220302030203631203720302030202d373420373960208201527f20302030203734203720302030202d363120353220302030203631203133203060408201527f2030203432202d393220302030202d313563302c2d34202d392c2d3132202d3160608201527f392c2d31326c302030632d31312c30202d32302c37202d32302c31326c30203160808201527f35202d393220302030202d34327a6d313736202d376c30202d313563302c2d3460a08201527f20342c2d3720382c2d376c30203063342c3020382c3320382c376c302031352060c08201527f2d313620307a6d2d3534202d32306c30202d313463302c2d3320332c2d36203760e08201527f2c2d366c30203063342c3020382c3320382c366c30203134202d313520307a6d6101008201527f2d333620306c30202d313463302c2d3320342c2d3620382c2d366c30203063346101208201527f2c3020372c3320372c366c30203134202d313520307a6d2d35352032306c30206101408201527f2d313563302c2d3420342c2d3720382c2d376c30203063342c3020382c33203861016082015270161bb61810189a9016989b10183d11179f60791b6101808201527f3c706174682066696c6c3d22626c61636b2220643d224d313130203237356c306101918201527f202d313463302c2d3420382c2d31312031382c2d31316c30203063392c3020316101b18201527f382c372031382c31316c30203134202d333620307a222f3e00000000000000006101d18201527f3c706174682066696c6c3d22626c61636b2220643d224d313933203232356c306101e98201527f202d313463302c2d3320332c2d3620372c2d366c30203063342c3020372c33206102098201527f372c366c30203134202d313420307a6d2d31343520306c30202d313463302c2d6102298201527f3320332c2d3620372c2d366c30203063342c3020372c3320372c366c302031346102498201527f202d313420307a6d3535202d32316c30202d313163302c2d3220332c2d3520366102698201527f2c2d356c30203063342c3020372c3320372c356c30203131202d313320307a6d6102898201527f333620306c30202d313163302c2d3220332c2d3520372c2d356c30203063332c6102a98201527f3020362c3320362c356c30203131202d313320307a222f3e00000000000000006102c98201527f203c706174682066696c6c3d22626c61636b2220643d224d323331203137306c6102e18201527f2d36322030203331202d34332033312034337a6d2d31343520306c2d363220306103018201527f203331202d34332033312034337a6d3837202d31326c2d39312030203436202d6103218201526b1a98901a1a901a98bd11179f60a11b610341820152905061206361034d82015b7f203c706174682066696c6c3d2223464546454645222020643d224d323331203581527f36632d352c31202d382c34202d31352c32202d31322c2d33202d31352c2d313860208201527f202d382c2d323520322c2d3220332c2d3220352c2d34202d362c30202d31322c60408201527f34202d31352c39202d372c313120312c32372031372c323720352c302031302c60608201527f2d332031332c2d3620312c3020322c2d3220332c2d337a6d2d343020376c312060808201527f3163302c3020302c3020312c316c31202d3163302c2d3120302c2d3120312c2d60a08201527f31202d312c30202d312c2d31202d322c2d326c302030632d312c31202d312c3160c08201527f202d322c327a6d2d34202d313763312c3020312c3020322c3120302c3020302c60e08201527f3020302c3120312c2d3220312c2d3220332c2d33202d322c30202d322c30202d6101008201527f332c2d3220302c3120302c31202d312c3220302c3020302c3020302c306c2d316101208201527f20317a6d323120323463312c3120312c3120322c326c30203063312c2d3120316101408201527f2c2d3120312c2d3120302c2d3120312c2d3120312c2d31202d322c2d31202d316101608201527f2c2d31202d322c2d32202d312c31202d312c31202d322c327a6d3133202d31386101808201527f63312c3020312c3120322c3120312c2d3120312c2d3120332c2d32202d322c306101a08201527f202d322c30202d332c2d32202d312c3220302c31202d322c326c3020317a6d2d6101c08201527f39202d313663322c3020342c3220342c3320312c2d3220302c2d3120332c2d336101e08201527f202d322c30202d322c2d31202d332c2d3320302c32202d312c33202d342c337a6102008201526211179f60e91b6102208201526102230190565b60006141f1613af1613aa284612a91565b701e17b634b732b0b923b930b234b2b73a1f60791b815261421460118201613a42565b90506c203c706174682066696c6c3d2760981b808252875161423d81600d850160208c016125fb565b61424b600d82850101612b82565b9250506b3c706174682066696c6c3d2760a01b808352875161427481600c860160208c016125fb565b614282600c82860101612d52565b93505080835250855161429c81600c850160208a016125fb565b6142aa600c82850101612db1565b9250508082525083516142c481600d8401602088016125fb565b6142d5613f40600d83850101612ece565b98975050505050505050565b60208082526031908201527f4552433732313a207472616e736665722063616c6c6572206973206e6f74206f6040820152701ddb995c881b9bdc88185c1c1c9bdd9959607a1b606082015260800190565b7f3c73766720786d6c6e733d22687474703a2f2f7777772e77332e6f72672f323081527f30302f7376672220786d6c3a73706163653d227072657365727665222077696460208201527f74683d22323535707822206865696768743d223239307078222076657273696f60408201527f6e3d22312e3122207374796c653d2273686170652d72656e646572696e673a6760608201527f656f6d6574726963507265636973696f6e3b20746578742d72656e646572696e60808201527f673a67656f6d6574726963507265636973696f6e3b20696d6167652d72656e6460a08201527f6572696e673a6f7074696d697a655175616c6974793b2066696c6c2d72756c6560c08201527f3a6576656e6f64643b20636c69702d72756c653a6576656e6f6464222076696560e08201527f77426f783d2230203020323535203239302220786d6c6e733a786c696e6b3d226101008201527f687474703a2f2f7777772e77332e6f72672f313939392f786c696e6b223e0000610120820152600061013e83516144c481838601602088016125fb565b83016144da828201651e17b9bb339f60d11b9052565b61014401949350505050565b7f222c2261747472696275746573223a5b7b2274726169745f74797065223a225281526d37b7b31116113b30b63ab2911d1160911b6020820152602e0190565b7f227d2c7b2274726169745f74797065223a2257696e646f77222c2276616c7565815262111d1160e91b602082015260230190565b683d913730b6b2911d1160b91b81528851600090614580816009850160208e016125fb565b701116113232b9b1b934b83a34b7b7111d1160791b60099184019182015289516145b181601a840160208e016125fb565b6145bf601a828401016144e6565b91505088516145d2818360208d016125fb565b61469c61466761466161462e6146286145f56145ef878901614526565b8f612b66565b7f227d2c7b2274726169745f74797065223a2257616c6c222c2276616c7565223a8152601160f91b602082015260210190565b8c612b66565b7f227d2c7b2274726169745f74797065223a22446f6f72222c2276616c7565223a8152601160f91b602082015260210190565b89612b66565b7f227d2c7b2274726169745f74797065223a22446179222c2276616c7565223a2281526259657360e81b602082015260230190565b9150506146b8816c113eae961137bbb732b9111d1160991b9052565b6146c5600d820186612b66565b6b11161134b6b0b3b2911d101160a11b815290507919185d184e9a5b5859d94bdcdd99cade1b5b0ed8985cd94d8d0b60321b600c8201526147096026820185612b66565b61227d60f01b81526002019b9a5050505050505050505050565b7f646174613a6170706c69636174696f6e2f6a736f6e3b6261736536342c00000081526000825161475b81601d8501602087016125fb565b91909101601d0192915050565b683d913730b6b2911d1160b91b8152845160009061478d816009850160208a016125fb565b701116113232b9b1b934b83a34b7b7111d1160791b60099184019182015285516147be81601a840160208a016125fb565b7f222c2261747472696275746573223a5b7b2274726169745f74797065223a22529101601a8101919091527f6f6f66222c2276616c7565223a22626c61636b227d2c7b2274726169745f7479603a8201527f7065223a2257696e646f77222c2276616c7565223a22626c61636b227d2c7b22605a8201527f74726169745f74797065223a2257616c6c222c2276616c7565223a22626c6163607a8201527f6b227d2c7b2274726169745f74797065223a22446f6f72222c2276616c756522609a8201527f3a22626c61636b227d2c7b2274726169745f74797065223a22446179222c227660ba82015268616c7565223a224e6f60b81b60da8201526c113eae961137bbb732b9111d1160991b60e38201526148dc60f0820186612b66565b6b11161134b6b0b3b2911d101160a11b815290507919185d184e9a5b5859d94bdcdd99cade1b5b0ed8985cd94d8d0b60321b600c8201526149206026820185612b66565b61227d60f01b8152600201979650505050505050565b683d913730b6b2911d1160b91b8152875160009061495b816009850160208d016125fb565b701116113232b9b1b934b83a34b7b7111d1160791b600991840191820152885161498c81601a840160208d016125fb565b61499a601a828401016144e6565b91505087516149ad818360208c016125fb565b614a106149dc6149d661462e6149d06145f56149ca878901614526565b8e612b66565b8b612b66565b88612b66565b7f227d2c7b2274726169745f74797065223a22446179222c2276616c7565223a228152614e6f60f01b602082015260220190565b915050614a228162227d5d60e81b9052565b6a161134b6b0b3b2911d101160a91b60038201527919185d184e9a5b5859d94bdcdd99cade1b5b0ed8985cd94d8d0b60321b600e820152614a666028820185612b66565b61227d60f01b81526002019a9950505050505050505050565b60208082526032908201527f4552433732313a207472616e7366657220746f206e6f6e20455243373231526560408201527131b2b4bb32b91034b6b83632b6b2b73a32b960711b606082015260800190565b6000816000190483118215151615614aeb57614aeb61293c565b500290565b600081614aff57614aff61293c565b506000190190565b600082614b1657614b16612a04565b500490565b6001600160a01b0385811682528416602082015260408101839052608060608201819052600090614b4e9083018461261f565b9695505050505050565b600060208284031215614b6a57600080fd5b8151612063816125c8565b634e487b7160e01b600052603160045260246000fd5b601f821115610cbf57600081815260208120601f850160051c81016020861015614bb25750805b601f850160051c820191505b81811015614bd157828155600101614bbe565b505050505050565b815167ffffffffffffffff811115614bf357614bf3612817565b614c0781614c018454612a5d565b84614b8b565b602080601f831160018114614c3c5760008415614c245750858301515b600019600386901b1c1916600185901b178555614bd1565b600085815260208120601f198616915b82811015614c6b57888601518255948401946001909101908401614c4c565b5085821015614c895787850151600019600388901b60f8161c191681555b5050505050600190811b0190555056fe4142434445464748494a4b4c4d4e4f505152535455565758595a6162636465666768696a6b6c6d6e6f707172737475767778797a303132333435363738392b2fa26469706673582212203aca8abf111495598465e2d557fd6f360bf74295cc4b26dcf51dd9de035e0f4e64736f6c63430008100033",
    "sourcePath": "c:/Users/Avelous/Desktop/Avelous/programming/Solidity/speedrun/RoboMatic/packages/hardhat/contracts/BuidlGuidlCadets.sol",
    "compiler": {
        "name": "solc",
        "version": "0.8.16+commit.07a7930e"
    },
    "functionHashes": {
        "approve(address,uint256)": "095ea7b3",
        "balanceOf(address)": "70a08231",
        "getApproved(uint256)": "081812fc",
        "getMintFee()": "7a5caab3",
        "getPropertiesById(uint16)": "7232f1cf",
        "i_priceFeed()": "957b8956",
        "isApprovedForAll(address,address)": "e985e9c5",
        "isDay(uint16)": "831af547",
        "lastPrice()": "053f14da",
        "mintFee()": "13966db5",
        "mintItem()": "eb93406b",
        "name()": "06fdde03",
        "ownerOf(uint256)": "6352211e",
        "renderedTokenById(uint16)": "222f721f",
        "safeTransferFrom(address,address,uint256)": "42842e0e",
        "safeTransferFrom(address,address,uint256,bytes)": "b88d4fde",
        "setApprovalForAll(address,bool)": "a22cb465",
        "supportsInterface(bytes4)": "01ffc9a7",
        "symbol()": "95d89b41",
        "tokenByIndex(uint256)": "4f6ccce7",
        "tokenIdToColor(uint16,uint256)": "3337a1cc",
        "tokenIdToRandomNumber(uint16)": "605b8d8d",
        "tokenOfOwnerByIndex(address,uint256)": "2f745c59",
        "tokenSVG(uint16)": "717f20b6",
        "tokenURI(uint256)": "c87b56dd",
        "totalSupply()": "18160ddd",
        "transferFrom(address,address,uint256)": "23b872dd",
        "withdraw()": "3ccfd60b"
    },
    "gasEstimates": {
        "creation": {
            "codeDepositCost": "3945400",
            "executionCost": "infinite",
            "totalCost": "infinite"
        },
        "external": {
            "": "infinite",
            "approve(address,uint256)": "infinite",
            "balanceOf(address)": "2679",
            "getApproved(uint256)": "4738",
            "getMintFee()": "281",
            "getPropertiesById(uint16)": "infinite",
            "i_priceFeed()": "infinite",
            "isApprovedForAll(address,address)": "infinite",
            "isDay(uint16)": "2619",
            "lastPrice()": "2364",
            "mintFee()": "285",
            "mintItem()": "infinite",
            "name()": "infinite",
            "ownerOf(uint256)": "2624",
            "renderedTokenById(uint16)": "infinite",
            "safeTransferFrom(address,address,uint256)": "infinite",
            "safeTransferFrom(address,address,uint256,bytes)": "infinite",
            "setApprovalForAll(address,bool)": "26772",
            "supportsInterface(bytes4)": "infinite",
            "symbol()": "infinite",
            "tokenByIndex(uint256)": "6826",
            "tokenIdToColor(uint16,uint256)": "infinite",
            "tokenIdToRandomNumber(uint16)": "2553",
            "tokenOfOwnerByIndex(address,uint256)": "5020",
            "tokenSVG(uint16)": "infinite",
            "tokenURI(uint256)": "infinite",
            "totalSupply()": "2404",
            "transferFrom(address,address,uint256)": "infinite",
            "withdraw()": "infinite"
        }
    }
}